{
  "transactions": [
    {
      "hash": "0x5efe53af1a3088e46780341eb551735bcbf3d950252ce7c4660b68699eb5af0b",
      "transactionType": "CALL",
      "contractName": null,
      "contractAddress": "0x5697a7f270eeeb576d45b8c03a0ac620d88c9d72",
      "function": "mint(address,uint256)",
      "arguments": [
        "0xD5BeD83a3d8f87B51ef6c92291556B634D5AE2F7",
        "10000000000"
      ],
      "transaction": {
        "from": "0x8a39c0e68e2055b0f0b4e137d8c940b9b3442390",
        "to": "0x5697a7f270eeeb576d45b8c03a0ac620d88c9d72",
        "gas": "0x7981",
        "value": "0x0",
        "input": "0x40c10f19000000000000000000000000d5bed83a3d8f87b51ef6c92291556b634d5ae2f700000000000000000000000000000000000000000000000000000002540be400",
        "nonce": "0xd",
        "chainId": "0x72"
      },
      "additionalContracts": [],
      "isFixedGasLimit": false
    }
  ],
  "receipts": [
    {
      "status": "0x1",
      "cumulativeGasUsed": "0x5468",
      "logs": [
        {
          "address": "0x1000000000000000000000000000000000000002",
          "topics": [
            "0xe7aa66356adbd5e839ef210626f6d8f6f72109c17fadf4c4f9ca82b315ae79b4"
          ],
          "data": "0x000000000000000000000000c738fdcde9cd2fbd72618d36ed71008b8d001ba4000000000000000000000000000000000000000000000000000000000000421a",
          "blockHash": "0xc21e72ee2f2c2489f023a0ebb4fe7496e3a5cdff4c6dfc28354c6e3f63ba5df4",
          "blockNumber": "0x13faff1",
          "transactionHash": "0x5efe53af1a3088e46780341eb551735bcbf3d950252ce7c4660b68699eb5af0b",
          "transactionIndex": "0x0",
          "logIndex": "0x0",
          "removed": false
        },
        {
          "address": "0x1000000000000000000000000000000000000002",
          "topics": [
            "0xe7aa66356adbd5e839ef210626f6d8f6f72109c17fadf4c4f9ca82b315ae79b4"
          ],
          "data": "0x000000000000000000000000d2a1bb23eb350814a30dd6f9de78bb2c8fdd9f1d0000000000000000000000000000000000000000000000000000000000005ed0",
          "blockHash": "0xc21e72ee2f2c2489f023a0ebb4fe7496e3a5cdff4c6dfc28354c6e3f63ba5df4",
          "blockNumber": "0x13faff1",
          "transactionHash": "0x5efe53af1a3088e46780341eb551735bcbf3d950252ce7c4660b68699eb5af0b",
          "transactionIndex": "0x0",
          "logIndex": "0x1",
          "removed": false
        },
        {
          "address": "0x1000000000000000000000000000000000000002",
          "topics": [
            "0xe7aa66356adbd5e839ef210626f6d8f6f72109c17fadf4c4f9ca82b315ae79b4"
          ],
          "data": "0x0000000000000000000000006892bdbbb14e1c9bd46bf31e7bac94d038fc82a6000000000000000000000000000000000000000000000000000000000000422d",
          "blockHash": "0xc21e72ee2f2c2489f023a0ebb4fe7496e3a5cdff4c6dfc28354c6e3f63ba5df4",
          "blockNumber": "0x13faff1",
          "transactionHash": "0x5efe53af1a3088e46780341eb551735bcbf3d950252ce7c4660b68699eb5af0b",
          "transactionIndex": "0x0",
          "logIndex": "0x2",
          "removed": false
        },
        {
          "address": "0x1000000000000000000000000000000000000002",
          "topics": [
            "0xe7aa66356adbd5e839ef210626f6d8f6f72109c17fadf4c4f9ca82b315ae79b4"
          ],
          "data": "0x000000000000000000000000bd33bdff04c357f7fc019e72d0504c24cf4aa0100000000000000000000000000000000000000000000000000000000000008f11",
          "blockHash": "0xc21e72ee2f2c2489f023a0ebb4fe7496e3a5cdff4c6dfc28354c6e3f63ba5df4",
          "blockNumber": "0x13faff1",
          "transactionHash": "0x5efe53af1a3088e46780341eb551735bcbf3d950252ce7c4660b68699eb5af0b",
          "transactionIndex": "0x0",
          "logIndex": "0x3",
          "removed": false
        },
        {
          "address": "0x1000000000000000000000000000000000000002",
          "topics": [
            "0xe7aa66356adbd5e839ef210626f6d8f6f72109c17fadf4c4f9ca82b315ae79b4"
          ],
          "data": "0x000000000000000000000000a90db6d10f856799b10ef2a77ebcbf460ac71e5200000000000000000000000000000000000000000000000000000000000024f3",
          "blockHash": "0xc21e72ee2f2c2489f023a0ebb4fe7496e3a5cdff4c6dfc28354c6e3f63ba5df4",
          "blockNumber": "0x13faff1",
          "transactionHash": "0x5efe53af1a3088e46780341eb551735bcbf3d950252ce7c4660b68699eb5af0b",
          "transactionIndex": "0x0",
          "logIndex": "0x4",
          "removed": false
        },
        {
          "address": "0x1000000000000000000000000000000000000002",
          "topics": [
            "0xe7aa66356adbd5e839ef210626f6d8f6f72109c17fadf4c4f9ca82b315ae79b4"
          ],
          "data": "0x0000000000000000000000000b162ca3acf3482d3357972e12d794434085d839000000000000000000000000000000000000000000000000000000000001410c",
          "blockHash": "0xc21e72ee2f2c2489f023a0ebb4fe7496e3a5cdff4c6dfc28354c6e3f63ba5df4",
          "blockNumber": "0x13faff1",
          "transactionHash": "0x5efe53af1a3088e46780341eb551735bcbf3d950252ce7c4660b68699eb5af0b",
          "transactionIndex": "0x0",
          "logIndex": "0x5",
          "removed": false
        }
      ],
      "logsBloom": "0x00020000000000000000000000000000000000000000000000000000000000000000000000000000000000000000000000000000000000000000000000000000000000000000000000400000000000000000000000000000000080000000000000000000000000000000000000000000000000000000000001000000000000000000000000000000000000000000000000000000000000000000000400000000080000000000000000000000000000000000000000000000000000000000000000000000000000000000000000000000000000000000000000000000000000000000000000000000000000000000000000000000000000000000000000000000",
      "type": "0x2",
      "transactionHash": "0x5efe53af1a3088e46780341eb551735bcbf3d950252ce7c4660b68699eb5af0b",
      "transactionIndex": "0x0",
      "blockHash": "0xc21e72ee2f2c2489f023a0ebb4fe7496e3a5cdff4c6dfc28354c6e3f63ba5df4",
      "blockNumber": "0x13faff1",
      "gasUsed": "0x5468",
      "effectiveGasPrice": "0xe8d4a5100",
      "from": "0x8a39c0e68e2055b0f0b4e137d8c940b9b3442390",
      "to": "0x5697a7f270eeeb576d45b8c03a0ac620d88c9d72",
      "contractAddress": null
    }
  ],
  "libraries": [],
  "pending": [],
  "returns": {},
  "timestamp": 1755423306216,
  "chain": 114,
  "commit": "abc6a32"
}