{
  "transactions": [
    {
      "hash": "0x4dc6f15467717d61ac88d76d22a7c06f6550346878b8fcc06eec446499c7d2ee",
      "transactionType": "CALL",
      "contractName": null,
      "contractAddress": "0xb910a29a10402d76acd49bd10c28533ef35c61c3",
      "function": "mint(address,uint256)",
      "arguments": [
        "0xD5BeD83a3d8f87B51ef6c92291556B634D5AE2F7",
        "10000000000"
      ],
      "transaction": {
        "from": "0x8a39c0e68e2055b0f0b4e137d8c940b9b3442390",
        "to": "0xb910a29a10402d76acd49bd10c28533ef35c61c3",
        "gas": "0xc160",
        "value": "0x0",
        "input": "0x40c10f19000000000000000000000000d5bed83a3d8f87b51ef6c92291556b634d5ae2f700000000000000000000000000000000000000000000000000000002540be400",
        "nonce": "0x18",
        "chainId": "0x72"
      },
      "additionalContracts": [],
      "isFixedGasLimit": false
    }
  ],
  "receipts": [
    {
      "status": "0x1",
      "cumulativeGasUsed": "0x8439",
      "logs": [
        {
          "address": "0xb910a29a10402d76acd49bd10c28533ef35c61c3",
          "topics": [
            "0xddf252ad1be2c89b69c2b068fc378daa952ba7f163c4a11628f55a4df523b3ef",
            "0x0000000000000000000000000000000000000000000000000000000000000000",
            "0x000000000000000000000000d5bed83a3d8f87b51ef6c92291556b634d5ae2f7"
          ],
          "data": "0x00000000000000000000000000000000000000000000000000000002540be400",
          "blockHash": "0x40d532cd914bd4ab3d2fcd5ef464b21699a903c2656175c89dedac099515f77a",
          "blockNumber": "0x13fb160",
          "transactionHash": "0x4dc6f15467717d61ac88d76d22a7c06f6550346878b8fcc06eec446499c7d2ee",
          "transactionIndex": "0x0",
          "logIndex": "0x0",
          "removed": false
        },
        {
          "address": "0x1000000000000000000000000000000000000002",
          "topics": [
            "0xe7aa66356adbd5e839ef210626f6d8f6f72109c17fadf4c4f9ca82b315ae79b4"
          ],
          "data": "0x000000000000000000000000c738fdcde9cd2fbd72618d36ed71008b8d001ba4000000000000000000000000000000000000000000000000000000000000421a",
          "blockHash": "0x40d532cd914bd4ab3d2fcd5ef464b21699a903c2656175c89dedac099515f77a",
          "blockNumber": "0x13fb160",
          "transactionHash": "0x4dc6f15467717d61ac88d76d22a7c06f6550346878b8fcc06eec446499c7d2ee",
          "transactionIndex": "0x0",
          "logIndex": "0x1",
          "removed": false
        },
        {
          "address": "0x1000000000000000000000000000000000000002",
          "topics": [
            "0xe7aa66356adbd5e839ef210626f6d8f6f72109c17fadf4c4f9ca82b315ae79b4"
          ],
          "data": "0x000000000000000000000000d2a1bb23eb350814a30dd6f9de78bb2c8fdd9f1d0000000000000000000000000000000000000000000000000000000000004442",
          "blockHash": "0x40d532cd914bd4ab3d2fcd5ef464b21699a903c2656175c89dedac099515f77a",
          "blockNumber": "0x13fb160",
          "transactionHash": "0x4dc6f15467717d61ac88d76d22a7c06f6550346878b8fcc06eec446499c7d2ee",
          "transactionIndex": "0x0",
          "logIndex": "0x2",
          "removed": false
        },
        {
          "address": "0x1000000000000000000000000000000000000002",
          "topics": [
            "0xe7aa66356adbd5e839ef210626f6d8f6f72109c17fadf4c4f9ca82b315ae79b4"
          ],
          "data": "0x0000000000000000000000006892bdbbb14e1c9bd46bf31e7bac94d038fc82a6000000000000000000000000000000000000000000000000000000000000422d",
          "blockHash": "0x40d532cd914bd4ab3d2fcd5ef464b21699a903c2656175c89dedac099515f77a",
          "blockNumber": "0x13fb160",
          "transactionHash": "0x4dc6f15467717d61ac88d76d22a7c06f6550346878b8fcc06eec446499c7d2ee",
          "transactionIndex": "0x0",
          "logIndex": "0x3",
          "removed": false
        },
        {
          "address": "0x1000000000000000000000000000000000000002",
          "topics": [
            "0xe7aa66356adbd5e839ef210626f6d8f6f72109c17fadf4c4f9ca82b315ae79b4"
          ],
          "data": "0x000000000000000000000000bd33bdff04c357f7fc019e72d0504c24cf4aa0100000000000000000000000000000000000000000000000000000000000008f11",
          "blockHash": "0x40d532cd914bd4ab3d2fcd5ef464b21699a903c2656175c89dedac099515f77a",
          "blockNumber": "0x13fb160",
          "transactionHash": "0x4dc6f15467717d61ac88d76d22a7c06f6550346878b8fcc06eec446499c7d2ee",
          "transactionIndex": "0x0",
          "logIndex": "0x4",
          "removed": false
        },
        {
          "address": "0x1000000000000000000000000000000000000002",
          "topics": [
            "0xe7aa66356adbd5e839ef210626f6d8f6f72109c17fadf4c4f9ca82b315ae79b4"
          ],
          "data": "0x000000000000000000000000a90db6d10f856799b10ef2a77ebcbf460ac71e5200000000000000000000000000000000000000000000000000000000000024f3",
          "blockHash": "0x40d532cd914bd4ab3d2fcd5ef464b21699a903c2656175c89dedac099515f77a",
          "blockNumber": "0x13fb160",
          "transactionHash": "0x4dc6f15467717d61ac88d76d22a7c06f6550346878b8fcc06eec446499c7d2ee",
          "transactionIndex": "0x0",
          "logIndex": "0x5",
          "removed": false
        },
        {
          "address": "0x1000000000000000000000000000000000000002",
          "topics": [
            "0xe7aa66356adbd5e839ef210626f6d8f6f72109c17fadf4c4f9ca82b315ae79b4"
          ],
          "data": "0x0000000000000000000000000b162ca3acf3482d3357972e12d794434085d8390000000000000000000000000000000000000000000000000000000000012d53",
          "blockHash": "0x40d532cd914bd4ab3d2fcd5ef464b21699a903c2656175c89dedac099515f77a",
          "blockNumber": "0x13fb160",
          "transactionHash": "0x4dc6f15467717d61ac88d76d22a7c06f6550346878b8fcc06eec446499c7d2ee",
          "transactionIndex": "0x0",
          "logIndex": "0x6",
          "removed": false
        }
      ],
      "logsBloom": "0x00020000000000000000000000000000000000000000000000000000000000000000000008000000000000000000000000000000000000000000000000000000000000000000000000400008000000000000000010000000000080000000000000000000020000000000000000000800000000000000000001000010000000000000001000000000000000000000000000000000000000000000000400000000080000000000000000000000000000000000000000000000020000000000000000000002000000000000000000000000000000000000000000000000000020000000800000002000000000000000000000000000000000000000000000000000",
      "type": "0x2",
      "transactionHash": "0x4dc6f15467717d61ac88d76d22a7c06f6550346878b8fcc06eec446499c7d2ee",
      "transactionIndex": "0x0",
      "blockHash": "0x40d532cd914bd4ab3d2fcd5ef464b21699a903c2656175c89dedac099515f77a",
      "blockNumber": "0x13fb160",
      "gasUsed": "0x8439",
      "effectiveGasPrice": "0xe8d4a5100",
      "from": "0x8a39c0e68e2055b0f0b4e137d8c940b9b3442390",
      "to": "0xb910a29a10402d76acd49bd10c28533ef35c61c3",
      "contractAddress": null
    }
  ],
  "libraries": [],
  "pending": [],
  "returns": {},
  "timestamp": 1755424251282,
  "chain": 114,
  "commit": "abc6a32"
}