{
  "transactions": [
    {
      "hash": "0xc417efbe9f432cfc9c1ce760345e34bc149a80135f11fc4e18f44be170107b65",
      "transactionType": "CALL",
      "contractName": null,
      "contractAddress": "0x7324383017d9a314e39c95073229e3e52d69df74",
      "function": "mint(address,uint256)",
      "arguments": [
        "0xD5BeD83a3d8f87B51ef6c92291556B634D5AE2F7",
        "10000000000"
      ],
      "transaction": {
        "from": "0x8a39c0e68e2055b0f0b4e137d8c940b9b3442390",
        "to": "0x7324383017d9a314e39c95073229e3e52d69df74",
        "gas": "0x112e4",
        "value": "0x0",
        "input": "0x40c10f19000000000000000000000000d5bed83a3d8f87b51ef6c92291556b634d5ae2f700000000000000000000000000000000000000000000000000000002540be400",
        "nonce": "0x6",
        "chainId": "0x72"
      },
      "additionalContracts": [],
      "isFixedGasLimit": false
    }
  ],
  "receipts": [
    {
      "status": "0x1",
      "cumulativeGasUsed": "0x6ef3d",
      "logs": [
        {
          "address": "0x7324383017d9a314e39c95073229e3e52d69df74",
          "topics": [
            "0xddf252ad1be2c89b69c2b068fc378daa952ba7f163c4a11628f55a4df523b3ef",
            "0x0000000000000000000000000000000000000000000000000000000000000000",
            "0x000000000000000000000000d5bed83a3d8f87b51ef6c92291556b634d5ae2f7"
          ],
          "data": "0x00000000000000000000000000000000000000000000000000000002540be400",
          "blockHash": "0xdb92cb2b2858abe7e5682b6404e01ee03a5ddf18a86c7691b9301bfc7127f903",
          "blockNumber": "0x13fab90",
          "transactionHash": "0xc417efbe9f432cfc9c1ce760345e34bc149a80135f11fc4e18f44be170107b65",
          "transactionIndex": "0x2",
          "logIndex": "0x8",
          "removed": false
        }
      ],
      "logsBloom": "0x00000000000000000000000000000000000000000000000000000000000000000000000008000000000000000000000000080000000000000000000000000000000000000100000000000008000000000000000000000000000000000000000000000000020000000000000000000800000000000000000000000010000000000000000000000000000000000000000000000000000000000000000080000000000000000000000000000000000000000000000000000000000000000000000000000002000000000000000000000000000000000000000000000000000020000000800000002000000000000000000000000000000000000000000000000000",
      "type": "0x2",
      "transactionHash": "0xc417efbe9f432cfc9c1ce760345e34bc149a80135f11fc4e18f44be170107b65",
      "transactionIndex": "0x2",
      "blockHash": "0xdb92cb2b2858abe7e5682b6404e01ee03a5ddf18a86c7691b9301bfc7127f903",
      "blockNumber": "0x13fab90",
      "gasUsed": "0xc705",
      "effectiveGasPrice": "0xe8d4a5100",
      "from": "0x8a39c0e68e2055b0f0b4e137d8c940b9b3442390",
      "to": "0x7324383017d9a314e39c95073229e3e52d69df74",
      "contractAddress": null
    }
  ],
  "libraries": [],
  "pending": [],
  "returns": {},
  "timestamp": 1755420324020,
  "chain": 114,
  "commit": "abc6a32"
}